{
  "contractName": "DateTime",
  "abi": [
    {
      "inputs": [
        {
          "internalType": "uint16",
          "name": "year",
          "type": "uint16"
        }
      ],
      "name": "isLeapYear",
      "outputs": [
        {
          "internalType": "bool",
          "name": "",
          "type": "bool"
        }
      ],
      "stateMutability": "pure",
      "type": "function",
      "constant": true
    },
    {
      "inputs": [
        {
          "internalType": "uint256",
          "name": "year",
          "type": "uint256"
        }
      ],
      "name": "leapYearsBefore",
      "outputs": [
        {
          "internalType": "uint256",
          "name": "",
          "type": "uint256"
        }
      ],
      "stateMutability": "pure",
      "type": "function",
      "constant": true
    },
    {
      "inputs": [
        {
          "internalType": "uint8",
          "name": "month",
          "type": "uint8"
        },
        {
          "internalType": "uint16",
          "name": "year",
          "type": "uint16"
        }
      ],
      "name": "getDaysInMonth",
      "outputs": [
        {
          "internalType": "uint8",
          "name": "",
          "type": "uint8"
        }
      ],
      "stateMutability": "pure",
      "type": "function",
      "constant": true
    },
    {
      "inputs": [
        {
          "internalType": "uint256",
          "name": "timestamp",
          "type": "uint256"
        }
      ],
      "name": "getYear",
      "outputs": [
        {
          "internalType": "uint16",
          "name": "",
          "type": "uint16"
        }
      ],
      "stateMutability": "pure",
      "type": "function",
      "constant": true
    },
    {
      "inputs": [
        {
          "internalType": "uint256",
          "name": "timestamp",
          "type": "uint256"
        }
      ],
      "name": "getMonth",
      "outputs": [
        {
          "internalType": "uint8",
          "name": "",
          "type": "uint8"
        }
      ],
      "stateMutability": "pure",
      "type": "function",
      "constant": true
    },
    {
      "inputs": [
        {
          "internalType": "uint256",
          "name": "timestamp",
          "type": "uint256"
        }
      ],
      "name": "getDay",
      "outputs": [
        {
          "internalType": "uint8",
          "name": "",
          "type": "uint8"
        }
      ],
      "stateMutability": "pure",
      "type": "function",
      "constant": true
    },
    {
      "inputs": [
        {
          "internalType": "uint256",
          "name": "timestamp",
          "type": "uint256"
        }
      ],
      "name": "getHour",
      "outputs": [
        {
          "internalType": "uint8",
          "name": "",
          "type": "uint8"
        }
      ],
      "stateMutability": "pure",
      "type": "function",
      "constant": true
    },
    {
      "inputs": [
        {
          "internalType": "uint256",
          "name": "timestamp",
          "type": "uint256"
        }
      ],
      "name": "getMinute",
      "outputs": [
        {
          "internalType": "uint8",
          "name": "",
          "type": "uint8"
        }
      ],
      "stateMutability": "pure",
      "type": "function",
      "constant": true
    },
    {
      "inputs": [
        {
          "internalType": "uint256",
          "name": "timestamp",
          "type": "uint256"
        }
      ],
      "name": "getSecond",
      "outputs": [
        {
          "internalType": "uint8",
          "name": "",
          "type": "uint8"
        }
      ],
      "stateMutability": "pure",
      "type": "function",
      "constant": true
    },
    {
      "inputs": [
        {
          "internalType": "uint256",
          "name": "timestamp",
          "type": "uint256"
        }
      ],
      "name": "getWeekday",
      "outputs": [
        {
          "internalType": "uint8",
          "name": "",
          "type": "uint8"
        }
      ],
      "stateMutability": "pure",
      "type": "function",
      "constant": true
    },
    {
      "inputs": [
        {
          "internalType": "uint16",
          "name": "year",
          "type": "uint16"
        },
        {
          "internalType": "uint8",
          "name": "month",
          "type": "uint8"
        },
        {
          "internalType": "uint8",
          "name": "day",
          "type": "uint8"
        },
        {
          "internalType": "uint8",
          "name": "hour",
          "type": "uint8"
        },
        {
          "internalType": "uint8",
          "name": "minute",
          "type": "uint8"
        }
      ],
      "name": "toTimestamp",
      "outputs": [
        {
          "internalType": "uint256",
          "name": "timestamp",
          "type": "uint256"
        }
      ],
      "stateMutability": "pure",
      "type": "function",
      "constant": true
    },
    {
      "inputs": [
        {
          "internalType": "uint16",
          "name": "year",
          "type": "uint16"
        },
        {
          "internalType": "uint8",
          "name": "month",
          "type": "uint8"
        },
        {
          "internalType": "uint8",
          "name": "day",
          "type": "uint8"
        },
        {
          "internalType": "uint8",
          "name": "hour",
          "type": "uint8"
        }
      ],
      "name": "toTimestamp",
      "outputs": [
        {
          "internalType": "uint256",
          "name": "timestamp",
          "type": "uint256"
        }
      ],
      "stateMutability": "pure",
      "type": "function",
      "constant": true
    },
    {
      "inputs": [
        {
          "internalType": "uint16",
          "name": "year",
          "type": "uint16"
        },
        {
          "internalType": "uint8",
          "name": "month",
          "type": "uint8"
        },
        {
          "internalType": "uint8",
          "name": "day",
          "type": "uint8"
        }
      ],
      "name": "toTimestamp",
      "outputs": [
        {
          "internalType": "uint256",
          "name": "timestamp",
          "type": "uint256"
        }
      ],
      "stateMutability": "pure",
      "type": "function",
      "constant": true
    },
    {
      "inputs": [
        {
          "internalType": "uint16",
          "name": "year",
          "type": "uint16"
        },
        {
          "internalType": "uint8",
          "name": "month",
          "type": "uint8"
        },
        {
          "internalType": "uint8",
          "name": "day",
          "type": "uint8"
        },
        {
          "internalType": "uint8",
          "name": "hour",
          "type": "uint8"
        },
        {
          "internalType": "uint8",
          "name": "minute",
          "type": "uint8"
        },
        {
          "internalType": "uint8",
          "name": "second",
          "type": "uint8"
        }
      ],
      "name": "toTimestamp",
      "outputs": [
        {
          "internalType": "uint256",
          "name": "timestamp",
          "type": "uint256"
        }
      ],
      "stateMutability": "pure",
      "type": "function",
      "constant": true
    }
  ],
  "bytecode": "0x610d90610026600b82828239805160001a60731461001957fe5b30600052607381538281f3fe73000000000000000000000000000000000000000030146080604052600436106100f45760003560e01c80639054bdec11610096578063a6f0e57711610070578063a6f0e57714610479578063b1999937146104c3578063b238ad0e14610505578063fa93f8831461055e576100f4565b80639054bdec1461036057806392d66313146103e7578063a324ad2414610431576100f4565b806365c72840116100d257806365c72840146102035780637f7918331461024b5780638aa001fc146102b85780638c8d98a014610300576100f4565b80633e239e1a146100f95780634ac1ad781461014157806362ba968714610189575b600080fd5b6101256004803603602081101561010f57600080fd5b81019080803590602001909291905050506105a6565b604051808260ff1660ff16815260200191505060405180910390f35b61016d6004803603602081101561015757600080fd5b81019080803590602001909291905050506105cd565b604051808260ff1660ff16815260200191505060405180910390f35b6101ed600480360360a081101561019f57600080fd5b81019080803561ffff169060200190929190803560ff169060200190929190803560ff169060200190929190803560ff169060200190929190803560ff1690602001909291905050506105f0565b6040518082815260200191505060405180910390f35b61022f6004803603602081101561021957600080fd5b810190808035906020019092919050505061060c565b604051808260ff1660ff16815260200191505060405180910390f35b6102a26004803603608081101561026157600080fd5b81019080803561ffff169060200190929190803560ff169060200190929190803560ff169060200190929190803560ff169060200190929190505050610622565b6040518082815260200191505060405180910390f35b6102e4600480360360208110156102ce57600080fd5b810190808035906020019092919050505061063d565b604051808260ff1660ff16815260200191505060405180910390f35b61034a6004803603606081101561031657600080fd5b81019080803561ffff169060200190929190803560ff169060200190929190803560ff169060200190929190505050610651565b6040518082815260200191505060405180910390f35b6103d1600480360360c081101561037657600080fd5b81019080803561ffff169060200190929190803560ff169060200190929190803560ff169060200190929190803560ff169060200190929190803560ff169060200190929190803560ff16906020019092919050505061066c565b6040518082815260200191505060405180910390f35b610413600480360360208110156103fd57600080fd5b81019080803590602001909291905050506108f7565b604051808261ffff1661ffff16815260200191505060405180910390f35b61045d6004803603602081101561044757600080fd5b81019080803590602001909291905050506109a0565b604051808260ff1660ff16815260200191505060405180910390f35b6104a96004803603602081101561048f57600080fd5b81019080803561ffff1690602001909291905050506109b6565b604051808215151515815260200191505060405180910390f35b6104ef600480360360208110156104d957600080fd5b8101908080359060200190929190505050610a2b565b6040518082815260200191505060405180910390f35b6105426004803603604081101561051b57600080fd5b81019080803560ff169060200190929190803561ffff169060200190929190505050610a5e565b604051808260ff1660ff16815260200191505060405180910390f35b61058a6004803603602081101561057457600080fd5b8101908080359060200190929190505050610b2a565b604051808260ff1660ff16815260200191505060405180910390f35b60006018603c8084816105b557fe5b04816105bd57fe5b04816105c557fe5b069050919050565b6000600760046201518084816105df57fe5b0401816105e857fe5b069050919050565b60006106018686868686600061066c565b905095945050505050565b600061061782610b47565b604001519050919050565b60006106338585858560008061066c565b9050949350505050565b6000603c828161064957fe5b069050919050565b6000610663848484600080600061066c565b90509392505050565b6000806107b290505b8761ffff168161ffff1610156106b85761068e816109b6565b156106a1576301e28500820191506106ab565b6301e13380820191505b8080600101915050610675565b6106c0610ce4565b601f816000600c81106106cf57fe5b602002019060ff16908160ff16815250506106e9896109b6565b1561071357601d816001600c81106106fd57fe5b602002019060ff16908160ff1681525050610734565b601c816001600c811061072257fe5b602002019060ff16908160ff16815250505b601f816002600c811061074357fe5b602002019060ff16908160ff1681525050601e816003600c811061076357fe5b602002019060ff16908160ff1681525050601f816004600c811061078357fe5b602002019060ff16908160ff1681525050601e816005600c81106107a357fe5b602002019060ff16908160ff1681525050601f816006600c81106107c357fe5b602002019060ff16908160ff1681525050601f816007600c81106107e357fe5b602002019060ff16908160ff1681525050601e816008600c811061080357fe5b602002019060ff16908160ff1681525050601f816009600c811061082357fe5b602002019060ff16908160ff1681525050601e81600a600c811061084357fe5b602002019060ff16908160ff1681525050601f81600b600c811061086357fe5b602002019060ff16908160ff1681525050600191505b8760ff168261ffff1610156108b957806001830361ffff16600c811061089b57fe5b602002015160ff166201518002830192508180600101925050610879565b6001870360ff166201518002830192508560ff16610e1002830192508460ff16603c02830192508360ff168301925082925050509695505050505050565b600080600090506000806301e13380858161090e57fe5b046107b261ffff160191506109286107b261ffff16610a2b565b6109358361ffff16610a2b565b039050806301e285000283019250806107b2830361ffff16036301e1338002830192505b848311156109955761096d600183036109b6565b15610980576301e285008303925061098a565b6301e13380830392505b600182039150610959565b819350505050919050565b60006109ab82610b47565b602001519050919050565b60008060048361ffff16816109c757fe5b0661ffff16146109da5760009050610a26565b600060648361ffff16816109ea57fe5b0661ffff16146109fd5760019050610a26565b60006101908361ffff1681610a0e57fe5b0661ffff1614610a215760009050610a26565b600190505b919050565b60006001820391506101908281610a3e57fe5b0460648381610a4957fe5b0460048481610a5457fe5b0403019050919050565b600060018360ff161480610a75575060038360ff16145b80610a83575060058360ff16145b80610a91575060078360ff16145b80610a9f575060088360ff16145b80610aad5750600a8360ff16145b80610abb5750600c8360ff16145b15610ac957601f9050610b24565b60048360ff161480610ade575060068360ff16145b80610aec575060098360ff16145b80610afa5750600b8360ff16145b15610b0857601e9050610b24565b610b11826109b6565b15610b1f57601d9050610b24565b601c90505b92915050565b6000603c808381610b3757fe5b0481610b3f57fe5b069050919050565b610b4f610d07565b6000809050600080610b60856108f7565b846000019061ffff16908161ffff1681525050610b826107b261ffff16610a2b565b610b93856000015161ffff16610a2b565b039150816301e285000283019250816107b285600001510361ffff16036301e1338002830192506000600191505b600c8260ff1611610c1757610bda828660000151610a5e565b60ff1662015180029050858482011115610c055781856020019060ff16908160ff1681525050610c17565b80840193508180600101925050610bc1565b600191505b610c2e85602001518660000151610a5e565b60ff168260ff1611610c7357858462015180011115610c5e5781856040019060ff16908160ff1681525050610c73565b62015180840193508180600101925050610c1c565b610c7c866105a6565b856060019060ff16908160ff1681525050610c9686610b2a565b856080019060ff16908160ff1681525050610cb08661063d565b8560a0019060ff16908160ff1681525050610cca866105cd565b8560c0019060ff16908160ff168152505050505050919050565b604051806101800160405280600c90602082028038833980820191505090505090565b6040518060e00160405280600061ffff168152602001600060ff168152602001600060ff168152602001600060ff168152602001600060ff168152602001600060ff168152602001600060ff168152509056fea2646970667358221220f323183dc6d5a08372d8bcef8810f5c0818dceb54db4a5053676d78eb888413b64736f6c63430006000033",
  "source": "pragma solidity ^0.6.0;\n\nlibrary DateTime {\n        /*\n         *  Date and Time utilities for ethereum contracts\n         *\n         */\n        struct _DateTime {\n                uint16 year;\n                uint8 month;\n                uint8 day;\n                uint8 hour;\n                uint8 minute;\n                uint8 second;\n                uint8 weekday;\n        }\n\n        uint constant DAY_IN_SECONDS = 86400;\n        uint constant YEAR_IN_SECONDS = 31536000;\n        uint constant LEAP_YEAR_IN_SECONDS = 31622400;\n\n        uint constant HOUR_IN_SECONDS = 3600;\n        uint constant MINUTE_IN_SECONDS = 60;\n\n        uint16 constant ORIGIN_YEAR = 1970;\n\n        function isLeapYear(uint16 year) public pure returns (bool) {\n                if (year % 4 != 0) {\n                        return false;\n                }\n                if (year % 100 != 0) {\n                        return true;\n                }\n                if (year % 400 != 0) {\n                        return false;\n                }\n                return true;\n        }\n\n        function leapYearsBefore(uint year) public pure returns (uint) {\n                year -= 1;\n                return year / 4 - year / 100 + year / 400;\n        }\n\n        function getDaysInMonth(uint8 month, uint16 year) public pure returns (uint8) {\n                if (month == 1 || month == 3 || month == 5 || month == 7 || month == 8 || month == 10 || month == 12) {\n                        return 31;\n                }\n                else if (month == 4 || month == 6 || month == 9 || month == 11) {\n                        return 30;\n                }\n                else if (isLeapYear(year)) {\n                        return 29;\n                }\n                else {\n                        return 28;\n                }\n        }\n\n        function parseTimestamp(uint timestamp) internal pure returns (_DateTime memory dt) {\n                uint secondsAccountedFor = 0;\n                uint buf;\n                uint8 i;\n\n                // Year\n                dt.year = getYear(timestamp);\n                buf = leapYearsBefore(dt.year) - leapYearsBefore(ORIGIN_YEAR);\n\n                secondsAccountedFor += LEAP_YEAR_IN_SECONDS * buf;\n                secondsAccountedFor += YEAR_IN_SECONDS * (dt.year - ORIGIN_YEAR - buf);\n\n                // Month\n                uint secondsInMonth;\n                for (i = 1; i <= 12; i++) {\n                        secondsInMonth = DAY_IN_SECONDS * getDaysInMonth(i, dt.year);\n                        if (secondsInMonth + secondsAccountedFor > timestamp) {\n                                dt.month = i;\n                                break;\n                        }\n                        secondsAccountedFor += secondsInMonth;\n                }\n\n                // Day\n                for (i = 1; i <= getDaysInMonth(dt.month, dt.year); i++) {\n                        if (DAY_IN_SECONDS + secondsAccountedFor > timestamp) {\n                                dt.day = i;\n                                break;\n                        }\n                        secondsAccountedFor += DAY_IN_SECONDS;\n                }\n\n                // Hour\n                dt.hour = getHour(timestamp);\n\n                // Minute\n                dt.minute = getMinute(timestamp);\n\n                // Second\n                dt.second = getSecond(timestamp);\n\n                // Day of week.\n                dt.weekday = getWeekday(timestamp);\n        }\n\n        function getYear(uint timestamp) public pure returns (uint16) {\n                uint secondsAccountedFor = 0;\n                uint16 year;\n                uint numLeapYears;\n\n                // Year\n                year = uint16(ORIGIN_YEAR + timestamp / YEAR_IN_SECONDS);\n                numLeapYears = leapYearsBefore(year) - leapYearsBefore(ORIGIN_YEAR);\n\n                secondsAccountedFor += LEAP_YEAR_IN_SECONDS * numLeapYears;\n                secondsAccountedFor += YEAR_IN_SECONDS * (year - ORIGIN_YEAR - numLeapYears);\n\n                while (secondsAccountedFor > timestamp) {\n                        if (isLeapYear(uint16(year - 1))) {\n                                secondsAccountedFor -= LEAP_YEAR_IN_SECONDS;\n                        }\n                        else {\n                                secondsAccountedFor -= YEAR_IN_SECONDS;\n                        }\n                        year -= 1;\n                }\n                return year;\n        }\n\n        function getMonth(uint timestamp) public pure returns (uint8) {\n                return parseTimestamp(timestamp).month;\n        }\n\n        function getDay(uint timestamp) public pure returns (uint8) {\n                return parseTimestamp(timestamp).day;\n        }\n\n        function getHour(uint timestamp) public pure returns (uint8) {\n                return uint8((timestamp / 60 / 60) % 24);\n        }\n\n        function getMinute(uint timestamp) public pure returns (uint8) {\n                return uint8((timestamp / 60) % 60);\n        }\n\n        function getSecond(uint timestamp) public pure returns (uint8) {\n                return uint8(timestamp % 60);\n        }\n\n        function getWeekday(uint timestamp) public pure returns (uint8) {\n                return uint8((timestamp / DAY_IN_SECONDS + 4) % 7);\n        }\n\n        function toTimestamp(uint16 year, uint8 month, uint8 day) public pure returns (uint timestamp) {\n                return toTimestamp(year, month, day, 0, 0, 0);\n        }\n\n        function toTimestamp(uint16 year, uint8 month, uint8 day, uint8 hour) public pure returns (uint timestamp) {\n                return toTimestamp(year, month, day, hour, 0, 0);\n        }\n\n        function toTimestamp(uint16 year, uint8 month, uint8 day, uint8 hour, uint8 minute) public pure returns (uint timestamp) {\n                return toTimestamp(year, month, day, hour, minute, 0);\n        }\n\n        function toTimestamp(uint16 year, uint8 month, uint8 day, uint8 hour, uint8 minute, uint8 second) public pure returns (uint timestamp) {\n                uint16 i;\n\n                // Year\n                for (i = ORIGIN_YEAR; i < year; i++) {\n                        if (isLeapYear(i)) {\n                                timestamp += LEAP_YEAR_IN_SECONDS;\n                        }\n                        else {\n                                timestamp += YEAR_IN_SECONDS;\n                        }\n                }\n\n                // Month\n                uint8[12] memory monthDayCounts;\n                monthDayCounts[0] = 31;\n                if (isLeapYear(year)) {\n                        monthDayCounts[1] = 29;\n                }\n                else {\n                        monthDayCounts[1] = 28;\n                }\n                monthDayCounts[2] = 31;\n                monthDayCounts[3] = 30;\n                monthDayCounts[4] = 31;\n                monthDayCounts[5] = 30;\n                monthDayCounts[6] = 31;\n                monthDayCounts[7] = 31;\n                monthDayCounts[8] = 30;\n                monthDayCounts[9] = 31;\n                monthDayCounts[10] = 30;\n                monthDayCounts[11] = 31;\n\n                for (i = 1; i < month; i++) {\n                        timestamp += DAY_IN_SECONDS * monthDayCounts[i - 1];\n                }\n\n                // Day\n                timestamp += DAY_IN_SECONDS * (day - 1);\n\n                // Hour\n                timestamp += HOUR_IN_SECONDS * (hour);\n\n                // Minute\n                timestamp += MINUTE_IN_SECONDS * (minute);\n\n                // Second\n                timestamp += second;\n\n                return timestamp;\n        }\n}",
  "sourcePath": "/Users/danielefriolo/take-tek/contracts/libs/DateTime.sol",
  "compiler": {
    "name": "solc",
    "version": "0.6.0+commit.26b70077.Emscripten.clang"
  },
  "schemaVersion": "3.0.20",
  "updatedAt": "2020-11-25T23:32:29.719Z",
  "networkType": "ethereum",
  "devdoc": {
    "methods": {}
  },
  "userdoc": {
    "methods": {}
  }
}