{
  "contractName": "GaenKey",
  "abi": [
    {
      "inputs": [
        {
          "internalType": "string",
          "name": "_keyData",
          "type": "string"
        },
        {
          "internalType": "uint256",
          "name": "_rollingStartNumber",
          "type": "uint256"
        },
        {
          "internalType": "uint256",
          "name": "_rollingPeriod",
          "type": "uint256"
        },
        {
          "internalType": "uint256",
          "name": "_trasmissionRiskLevel",
          "type": "uint256"
        }
      ],
      "stateMutability": "nonpayable",
      "type": "constructor"
    },
    {
      "inputs": [],
      "name": "getKeyData",
      "outputs": [
        {
          "internalType": "string",
          "name": "",
          "type": "string"
        }
      ],
      "stateMutability": "view",
      "type": "function"
    },
    {
      "inputs": [],
      "name": "getRollingStartNumber",
      "outputs": [
        {
          "internalType": "uint256",
          "name": "",
          "type": "uint256"
        }
      ],
      "stateMutability": "view",
      "type": "function"
    },
    {
      "inputs": [],
      "name": "getRollingPeriod",
      "outputs": [
        {
          "internalType": "uint256",
          "name": "",
          "type": "uint256"
        }
      ],
      "stateMutability": "view",
      "type": "function"
    },
    {
      "inputs": [],
      "name": "getTrasmissionRiskLevel",
      "outputs": [
        {
          "internalType": "uint256",
          "name": "",
          "type": "uint256"
        }
      ],
      "stateMutability": "view",
      "type": "function"
    }
  ],
  "bytecode": "0x608060405234801561001057600080fd5b5060405161041c38038061041c8339818101604052608081101561003357600080fd5b810190808051604051939291908464010000000082111561005357600080fd5b8382019150602082018581111561006957600080fd5b825186600182028301116401000000008211171561008657600080fd5b8083526020830192505050908051906020019080838360005b838110156100ba57808201518184015260208101905061009f565b50505050905090810190601f1680156100e75780820380516001836020036101000a031916815260200191505b50604052602001805190602001909291908051906020019092919080519060200190929190505050826001819055508060038190555081600281905550836000908051906020019061013a929190610144565b50505050506101e9565b828054600181600116156101000203166002900490600052602060002090601f016020900481019282601f1061018557805160ff19168380011785556101b3565b828001600101855582156101b3579182015b828111156101b2578251825591602001919060010190610197565b5b5090506101c091906101c4565b5090565b6101e691905b808211156101e25760008160009055506001016101ca565b5090565b90565b610224806101f86000396000f3fe608060405234801561001057600080fd5b506004361061004c5760003560e01c806321cbc55b1461005157806346aab45f1461006f5780638860621c1461008d578063f7c21b52146100ab575b600080fd5b61005961012e565b6040518082815260200191505060405180910390f35b610077610138565b6040518082815260200191505060405180910390f35b610095610142565b6040518082815260200191505060405180910390f35b6100b361014c565b6040518080602001828103825283818151815260200191508051906020019080838360005b838110156100f35780820151818401526020810190506100d8565b50505050905090810190601f1680156101205780820380516001836020036101000a031916815260200191505b509250505060405180910390f35b6000600154905090565b6000600354905090565b6000600254905090565b606060008054600181600116156101000203166002900480601f0160208091040260200160405190810160405280929190818152602001828054600181600116156101000203166002900480156101e45780601f106101b9576101008083540402835291602001916101e4565b820191906000526020600020905b8154815290600101906020018083116101c757829003601f168201915b505050505090509056fea26469706673582212203cb04b70ab834f0c3d44baee6e68f1de7d8f162a276b23f95b6c0a3dc82cdb2f64736f6c63430006000033",
  "source": "    pragma solidity ^0.6.0;\n\t\n    contract GaenKey {\n    \tstring keyData; //base64 key (optional)\n    \tuint rollingStartNumber;\n    \tuint rollingPeriod;\n    \tuint transmissionRiskLevel;\n    /*\tconstructor (bytes memory _keyData, uint _rollingStartNumber, uint _rollingPeriod, uint _trasmissionRiskLevel) public {\n    \t    keyData = _keyData;\n    \t    rollingStartNumber = _rollingStartNumber;\n    \t    rollingPeriod = _rollingPeriod;\n    \t    transmissionRiskLevel = _trasmissionRiskLevel;\n    \t}*/\n    \t    constructor (string memory _keyData, uint _rollingStartNumber, uint _rollingPeriod, uint _trasmissionRiskLevel) public {\n    \t    rollingStartNumber = _rollingStartNumber;\n    \t    transmissionRiskLevel = _trasmissionRiskLevel;\n    \t    rollingPeriod = _rollingPeriod;\n    \t    keyData = _keyData;\n    \t}\n    function getKeyData() view public returns (string memory) {\n    \t    return keyData;\n    \t}\n       function getRollingStartNumber() view public returns (uint) {\n    \t    return rollingStartNumber;\n    \t}\n    \tfunction getRollingPeriod() view public returns (uint) {\n    \t    return rollingPeriod;\n    \t}\n    \t  \tfunction getTrasmissionRiskLevel() view public returns (uint) {\n    \t    return transmissionRiskLevel;\n    \t}\n    }",
  "sourcePath": "/Users/danielefriolo/take-tek/contracts/GaenKey.sol",
  "compiler": {
    "name": "solc",
    "version": "0.6.0+commit.26b70077.Emscripten.clang"
  },
  "schemaVersion": "3.0.20",
  "updatedAt": "2020-11-05T15:27:05.172Z",
  "devdoc": {
    "methods": {}
  },
  "userdoc": {
    "methods": {}
  }
}