{
  "contractName": "TakeTEK",
  "abi": [
    {
      "inputs": [
        {
          "internalType": "bytes",
          "name": "_pkX",
          "type": "bytes"
        },
        {
          "internalType": "bytes",
          "name": "_pkY",
          "type": "bytes"
        },
        {
          "internalType": "uint256",
          "name": "_k",
          "type": "uint256"
        },
        {
          "internalType": "uint256",
          "name": "_collateral",
          "type": "uint256"
        },
        {
          "internalType": "bytes16[]",
          "name": "_keys",
          "type": "bytes16[]"
        },
        {
          "internalType": "uint256[]",
          "name": "_rollingStartNumbers",
          "type": "uint256[]"
        },
        {
          "internalType": "uint256[]",
          "name": "_transmissionRiskLevels",
          "type": "uint256[]"
        }
      ],
      "stateMutability": "nonpayable",
      "type": "constructor"
    },
    {
      "inputs": [
        {
          "internalType": "uint256",
          "name": "x0",
          "type": "uint256"
        },
        {
          "internalType": "uint256",
          "name": "y0",
          "type": "uint256"
        },
        {
          "internalType": "uint256",
          "name": "x1",
          "type": "uint256"
        },
        {
          "internalType": "uint256",
          "name": "y1",
          "type": "uint256"
        }
      ],
      "name": "add",
      "outputs": [
        {
          "internalType": "uint256",
          "name": "",
          "type": "uint256"
        },
        {
          "internalType": "uint256",
          "name": "",
          "type": "uint256"
        }
      ],
      "stateMutability": "pure",
      "type": "function",
      "constant": true
    },
    {
      "inputs": [
        {
          "internalType": "uint256",
          "name": "x1",
          "type": "uint256"
        },
        {
          "internalType": "uint256",
          "name": "y1",
          "type": "uint256"
        },
        {
          "internalType": "uint256",
          "name": "x2",
          "type": "uint256"
        },
        {
          "internalType": "uint256",
          "name": "y2",
          "type": "uint256"
        }
      ],
      "name": "addAndReturnProjectivePoint",
      "outputs": [
        {
          "internalType": "uint256[3]",
          "name": "P",
          "type": "uint256[3]"
        }
      ],
      "stateMutability": "pure",
      "type": "function",
      "constant": true
    },
    {
      "inputs": [
        {
          "internalType": "uint256",
          "name": "x0",
          "type": "uint256"
        },
        {
          "internalType": "uint256",
          "name": "y0",
          "type": "uint256"
        },
        {
          "internalType": "uint256",
          "name": "z0",
          "type": "uint256"
        },
        {
          "internalType": "uint256",
          "name": "x1",
          "type": "uint256"
        },
        {
          "internalType": "uint256",
          "name": "y1",
          "type": "uint256"
        },
        {
          "internalType": "uint256",
          "name": "z1",
          "type": "uint256"
        }
      ],
      "name": "addProj",
      "outputs": [
        {
          "internalType": "uint256",
          "name": "x2",
          "type": "uint256"
        },
        {
          "internalType": "uint256",
          "name": "y2",
          "type": "uint256"
        },
        {
          "internalType": "uint256",
          "name": "z2",
          "type": "uint256"
        }
      ],
      "stateMutability": "pure",
      "type": "function",
      "constant": true
    },
    {
      "inputs": [
        {
          "internalType": "uint256",
          "name": "x",
          "type": "uint256"
        },
        {
          "internalType": "uint256",
          "name": "y",
          "type": "uint256"
        }
      ],
      "name": "isOnCurve",
      "outputs": [
        {
          "internalType": "bool",
          "name": "",
          "type": "bool"
        }
      ],
      "stateMutability": "pure",
      "type": "function",
      "constant": true
    },
    {
      "inputs": [
        {
          "internalType": "uint256",
          "name": "x0",
          "type": "uint256"
        },
        {
          "internalType": "uint256",
          "name": "y0",
          "type": "uint256"
        }
      ],
      "name": "isZeroCurve",
      "outputs": [
        {
          "internalType": "bool",
          "name": "isZero",
          "type": "bool"
        }
      ],
      "stateMutability": "pure",
      "type": "function",
      "constant": true
    },
    {
      "inputs": [
        {
          "internalType": "uint256",
          "name": "scalar",
          "type": "uint256"
        }
      ],
      "name": "multipleGeneratorByScalar",
      "outputs": [
        {
          "internalType": "uint256",
          "name": "",
          "type": "uint256"
        },
        {
          "internalType": "uint256",
          "name": "",
          "type": "uint256"
        }
      ],
      "stateMutability": "pure",
      "type": "function",
      "constant": true
    },
    {
      "inputs": [
        {
          "internalType": "uint256",
          "name": "x0",
          "type": "uint256"
        },
        {
          "internalType": "uint256",
          "name": "y0",
          "type": "uint256"
        },
        {
          "internalType": "uint256",
          "name": "exp",
          "type": "uint256"
        }
      ],
      "name": "multiplyPowerBase2",
      "outputs": [
        {
          "internalType": "uint256",
          "name": "",
          "type": "uint256"
        },
        {
          "internalType": "uint256",
          "name": "",
          "type": "uint256"
        }
      ],
      "stateMutability": "pure",
      "type": "function",
      "constant": true
    },
    {
      "inputs": [
        {
          "internalType": "uint256",
          "name": "x0",
          "type": "uint256"
        },
        {
          "internalType": "uint256",
          "name": "y0",
          "type": "uint256"
        },
        {
          "internalType": "uint256",
          "name": "scalar",
          "type": "uint256"
        }
      ],
      "name": "multiplyScalar",
      "outputs": [
        {
          "internalType": "uint256",
          "name": "x1",
          "type": "uint256"
        },
        {
          "internalType": "uint256",
          "name": "y1",
          "type": "uint256"
        }
      ],
      "stateMutability": "pure",
      "type": "function",
      "constant": true
    },
    {
      "inputs": [
        {
          "internalType": "uint256",
          "name": "x0",
          "type": "uint256"
        },
        {
          "internalType": "uint256",
          "name": "y0",
          "type": "uint256"
        },
        {
          "internalType": "uint256",
          "name": "z0",
          "type": "uint256"
        }
      ],
      "name": "toAffinePoint",
      "outputs": [
        {
          "internalType": "uint256",
          "name": "x1",
          "type": "uint256"
        },
        {
          "internalType": "uint256",
          "name": "y1",
          "type": "uint256"
        }
      ],
      "stateMutability": "pure",
      "type": "function",
      "constant": true
    },
    {
      "inputs": [
        {
          "internalType": "uint256",
          "name": "x0",
          "type": "uint256"
        },
        {
          "internalType": "uint256",
          "name": "y0",
          "type": "uint256"
        }
      ],
      "name": "toProjectivePoint",
      "outputs": [
        {
          "internalType": "uint256[3]",
          "name": "P",
          "type": "uint256[3]"
        }
      ],
      "stateMutability": "pure",
      "type": "function",
      "constant": true
    },
    {
      "inputs": [
        {
          "internalType": "uint256",
          "name": "x0",
          "type": "uint256"
        },
        {
          "internalType": "uint256",
          "name": "y0",
          "type": "uint256"
        }
      ],
      "name": "twice",
      "outputs": [
        {
          "internalType": "uint256",
          "name": "",
          "type": "uint256"
        },
        {
          "internalType": "uint256",
          "name": "",
          "type": "uint256"
        }
      ],
      "stateMutability": "pure",
      "type": "function",
      "constant": true
    },
    {
      "inputs": [
        {
          "internalType": "uint256",
          "name": "x0",
          "type": "uint256"
        },
        {
          "internalType": "uint256",
          "name": "y0",
          "type": "uint256"
        },
        {
          "internalType": "uint256",
          "name": "z0",
          "type": "uint256"
        }
      ],
      "name": "twiceProj",
      "outputs": [
        {
          "internalType": "uint256",
          "name": "x1",
          "type": "uint256"
        },
        {
          "internalType": "uint256",
          "name": "y1",
          "type": "uint256"
        },
        {
          "internalType": "uint256",
          "name": "z1",
          "type": "uint256"
        }
      ],
      "stateMutability": "pure",
      "type": "function",
      "constant": true
    },
    {
      "inputs": [
        {
          "internalType": "bytes32",
          "name": "message",
          "type": "bytes32"
        },
        {
          "internalType": "uint256[2]",
          "name": "rs",
          "type": "uint256[2]"
        },
        {
          "internalType": "uint256[2]",
          "name": "Q",
          "type": "uint256[2]"
        }
      ],
      "name": "validateSignature",
      "outputs": [
        {
          "internalType": "bool",
          "name": "",
          "type": "bool"
        }
      ],
      "stateMutability": "pure",
      "type": "function",
      "constant": true
    },
    {
      "inputs": [],
      "name": "zeroAffine",
      "outputs": [
        {
          "internalType": "uint256",
          "name": "x",
          "type": "uint256"
        },
        {
          "internalType": "uint256",
          "name": "y",
          "type": "uint256"
        }
      ],
      "stateMutability": "pure",
      "type": "function",
      "constant": true
    },
    {
      "inputs": [],
      "name": "zeroProj",
      "outputs": [
        {
          "internalType": "uint256",
          "name": "x",
          "type": "uint256"
        },
        {
          "internalType": "uint256",
          "name": "y",
          "type": "uint256"
        },
        {
          "internalType": "uint256",
          "name": "z",
          "type": "uint256"
        }
      ],
      "stateMutability": "pure",
      "type": "function",
      "constant": true
    },
    {
      "inputs": [],
      "name": "getPrize",
      "outputs": [
        {
          "internalType": "uint256",
          "name": "",
          "type": "uint256"
        }
      ],
      "stateMutability": "view",
      "type": "function",
      "constant": true
    },
    {
      "inputs": [],
      "name": "getCollateral",
      "outputs": [
        {
          "internalType": "uint256",
          "name": "",
          "type": "uint256"
        }
      ],
      "stateMutability": "view",
      "type": "function",
      "constant": true
    },
    {
      "inputs": [],
      "name": "isSigVerified",
      "outputs": [
        {
          "internalType": "bool",
          "name": "",
          "type": "bool"
        }
      ],
      "stateMutability": "view",
      "type": "function",
      "constant": true
    },
    {
      "inputs": [],
      "name": "depositBuyer",
      "outputs": [],
      "stateMutability": "payable",
      "type": "function",
      "payable": true
    },
    {
      "inputs": [],
      "name": "promiseUpload",
      "outputs": [],
      "stateMutability": "payable",
      "type": "function",
      "payable": true
    },
    {
      "inputs": [],
      "name": "checkTimeout",
      "outputs": [],
      "stateMutability": "nonpayable",
      "type": "function"
    },
    {
      "inputs": [
        {
          "internalType": "bytes",
          "name": "exportFile",
          "type": "bytes"
        },
        {
          "internalType": "bytes",
          "name": "signatureFile",
          "type": "bytes"
        }
      ],
      "name": "sendSignedTEKListImmuni",
      "outputs": [],
      "stateMutability": "payable",
      "type": "function",
      "payable": true
    },
    {
      "inputs": [
        {
          "internalType": "bytes",
          "name": "exportFile",
          "type": "bytes"
        },
        {
          "internalType": "bytes",
          "name": "signatureFile",
          "type": "bytes"
        }
      ],
      "name": "sendSignedTEKListSC",
      "outputs": [],
      "stateMutability": "payable",
      "type": "function",
      "payable": true
    },
    {
      "inputs": [
        {
          "internalType": "bytes",
          "name": "exportFile",
          "type": "bytes"
        },
        {
          "internalType": "bytes",
          "name": "signatureFile",
          "type": "bytes"
        },
        {
          "internalType": "uint256",
          "name": "expStart",
          "type": "uint256"
        },
        {
          "internalType": "uint256",
          "name": "sigStart",
          "type": "uint256"
        }
      ],
      "name": "sendSignedTEKList",
      "outputs": [],
      "stateMutability": "payable",
      "type": "function",
      "payable": true
    }
  ],
  "bytecode": "0x60806040526000600460166101000a81548160ff0219169083151502179055503480156200002c57600080fd5b506040516200381538038062003815833981810160405260e08110156200005257600080fd5b81019080805160405193929190846401000000008211156200007357600080fd5b838201915060208201858111156200008a57600080fd5b8251866001820283011164010000000082111715620000a857600080fd5b8083526020830192505050908051906020019080838360005b83811015620000de578082015181840152602081019050620000c1565b50505050905090810190601f1680156200010c5780820380516001836020036101000a031916815260200191505b50604052602001805160405193929190846401000000008211156200013057600080fd5b838201915060208201858111156200014757600080fd5b82518660018202830111640100000000821117156200016557600080fd5b8083526020830192505050908051906020019080838360005b838110156200019b5780820151818401526020810190506200017e565b50505050905090810190601f168015620001c95780820380516001836020036101000a031916815260200191505b506040526020018051906020019092919080519060200190929190805160405193929190846401000000008211156200020157600080fd5b838201915060208201858111156200021857600080fd5b82518660208202830111640100000000821117156200023657600080fd5b8083526020830192505050908051906020019060200280838360005b838110156200026f57808201518184015260208101905062000252565b50505050905001604052602001805160405193929190846401000000008211156200029957600080fd5b83820191506020820185811115620002b057600080fd5b8251866020820283011164010000000082111715620002ce57600080fd5b8083526020830192505050908051906020019060200280838360005b8381101562000307578082015181840152602081019050620002ea565b50505050905001604052602001805160405193929190846401000000008211156200033157600080fd5b838201915060208201858111156200034857600080fd5b82518660208202830111640100000000821117156200036657600080fd5b8083526020830192505050908051906020019060200280838360005b838110156200039f57808201518184015260208101905062000382565b50505050905001604052505050620003c4876000620004e060201b62002f0d1760201c565b60008060028110620003d257fe5b0181905550620003ef866000620004e060201b62002f0d1760201c565b6000600160028110620003fe57fe5b018190555082600990805190602001906200041b929190620005ec565b5081600a908051906020019062000434929190620006b8565b5080600b90805190602001906200044d929190620006b8565b5033600360006101000a81548173ffffffffffffffffffffffffffffffffffffffff021916908373ffffffffffffffffffffffffffffffffffffffff1602179055506000600460146101000a81548160ff0219169083151502179055506000600460156101000a81548160ff02191690831515021790555084600581905550836007819055505050505050505062000774565b6000816020830110156200055c576040517f08c379a00000000000000000000000000000000000000000000000000000000081526004018080602001828103825260128152602001807f746f55696e743235365f6f766572666c6f77000000000000000000000000000081525060200191505060405180910390fd5b6020820183511015620005d7576040517f08c379a00000000000000000000000000000000000000000000000000000000081526004018080602001828103825260158152602001807f746f55696e743235365f6f75744f66426f756e6473000000000000000000000081525060200191505060405180910390fd5b60008260208501015190508091505092915050565b82805482825590600052602060002090600101600290048101928215620006a55791602002820160005b838211156200066557835183826101000a8154816fffffffffffffffffffffffffffffffff021916908360801c02179055509260200192601001602081600f0104928301926001030262000616565b8015620006a35782816101000a8154906fffffffffffffffffffffffffffffffff0219169055601001602081600f0104928301926001030262000665565b505b509050620006b491906200070a565b5090565b828054828255906000526020600020908101928215620006f7579160200282015b82811115620006f6578251825591602001919060010190620006d9565b5b5090506200070691906200074c565b5090565b6200074991905b808211156200074557600081816101000a8154906fffffffffffffffffffffffffffffffff02191690555060010162000711565b5090565b90565b6200077191905b808211156200076d57600081600090555060010162000753565b5090565b90565b61309180620007846000396000f3fe60806040526004361061014b5760003560e01c80637ec8da8d116100b6578063c34f6b0d1161006f578063c34f6b0d14610aaa578063c49f1fc914610ad5578063c80edca414610adf578063d8d3fc6014610b50578063e022d77c14610b7f578063f214aba014610bf35761014b565b80637ec8da8d146106d857806384dfba46146107595780638a71c94a1461078b578063afa4ce59146108dd578063b854260914610a43578063c30cfa2d14610a4d5761014b565b8063322b24aa11610108578063322b24aa1461038857806349d98c1f146103f25780635c1548fb14610544578063675ca0431461056f578063713eca28146105d957806372fb4a141461066e5761014b565b806304e960d71461015057806309bbd6a01461022557806309d3ef311461023c5780630afb4ddc1461029c5780630b0dbcfa146102f257806314c670601461034f575b600080fd5b34801561015c57600080fd5b5061020b600480360360a081101561017357600080fd5b810190808035906020019092919080604001906002806020026040519081016040528092919082600260200280828437600081840152601f19601f820116905080830192505050505050919291929080604001906002806020026040519081016040528092919082600260200280828437600081840152601f19601f8201169050808301925050505050509192919290505050610c82565b604051808215151515815260200191505060405180910390f35b34801561023157600080fd5b5061023a610fa0565b005b34801561024857600080fd5b5061027f6004803603604081101561025f57600080fd5b8101908080359060200190929190803590602001909291905050506110d2565b604051808381526020018281526020019250505060405180910390f35b3480156102a857600080fd5b506102d5600480360360208110156102bf57600080fd5b8101908080359060200190929190505050611106565b604051808381526020018281526020019250505060405180910390f35b3480156102fe57600080fd5b506103356004803603604081101561031557600080fd5b81019080803590602001909291908035906020019092919050505061115d565b604051808215151515815260200191505060405180910390f35b34801561035b57600080fd5b5061036461137c565b60405180848152602001838152602001828152602001935050505060405180910390f35b34801561039457600080fd5b506103d5600480360360608110156103ab57600080fd5b8101908080359060200190929190803590602001909291908035906020019092919050505061139a565b604051808381526020018281526020019250505060405180910390f35b6105426004803603604081101561040857600080fd5b810190808035906020019064010000000081111561042557600080fd5b82018360208201111561043757600080fd5b8035906020019184600183028401116401000000008311171561045957600080fd5b91908080601f016020809104026020016040519081016040528093929190818152602001838380828437600081840152601f19601f820116905080830192505050505050509192919290803590602001906401000000008111156104bc57600080fd5b8201836020820111156104ce57600080fd5b803590602001918460018302840111640100000000831117156104f057600080fd5b91908080601f016020809104026020016040519081016040528093929190818152602001838380828437600081840152601f19601f8201169050808301925050505050505091929192905050506113fa565b005b34801561055057600080fd5b5061055961140c565b6040518082815260200191505060405180910390f35b34801561057b57600080fd5b506105bc6004803603606081101561059257600080fd5b81019080803590602001909291908035906020019092919080359060200190929190505050611416565b604051808381526020018281526020019250505060405180910390f35b3480156105e557600080fd5b50610630600480360360808110156105fc57600080fd5b81019080803590602001909291908035906020019092919080359060200190929190803590602001909291905050506114aa565b6040518082600360200280838360005b8381101561065b578082015181840152602081019050610640565b5050505090500191505060405180910390f35b34801561067a57600080fd5b506106bb6004803603606081101561069157600080fd5b810190808035906020019092919080359060200190929190803590602001909291905050506114df565b604051808381526020018281526020019250505060405180910390f35b3480156106e457600080fd5b5061071b600480360360408110156106fb57600080fd5b8101908080359060200190929190803590602001909291905050506115e1565b6040518082600360200280838360005b8381101561074657808201518184015260208101905061072b565b5050505090500191505060405180910390f35b34801561076557600080fd5b5061076e6116d6565b604051808381526020018281526020019250505060405180910390f35b6108db600480360360408110156107a157600080fd5b81019080803590602001906401000000008111156107be57600080fd5b8201836020820111156107d057600080fd5b803590602001918460018302840111640100000000831117156107f257600080fd5b91908080601f016020809104026020016040519081016040528093929190818152602001838380828437600081840152601f19601f8201169050808301925050505050505091929192908035906020019064010000000081111561085557600080fd5b82018360208201111561086757600080fd5b8035906020019184600183028401116401000000008311171561088957600080fd5b91908080601f016020809104026020016040519081016040528093929190818152602001838380828437600081840152601f19601f8201169050808301925050505050505091929192905050506116ea565b005b610a41600480360360808110156108f357600080fd5b810190808035906020019064010000000081111561091057600080fd5b82018360208201111561092257600080fd5b8035906020019184600183028401116401000000008311171561094457600080fd5b91908080601f016020809104026020016040519081016040528093929190818152602001838380828437600081840152601f19601f820116905080830192505050505050509192919290803590602001906401000000008111156109a757600080fd5b8201836020820111156109b957600080fd5b803590602001918460018302840111640100000000831117156109db57600080fd5b91908080601f016020809104026020016040519081016040528093929190818152602001838380828437600081840152601f19601f82011690508083019250505050505050919291929080359060200190929190803590602001909291905050506116fc565b005b610a4b6117fb565b005b348015610a5957600080fd5b50610a9060048036036040811015610a7057600080fd5b810190808035906020019092919080359060200190929190505050611890565b604051808215151515815260200191505060405180910390f35b348015610ab657600080fd5b50610abf6118ba565b6040518082815260200191505060405180910390f35b610add6118c4565b005b348015610aeb57600080fd5b50610b2c60048036036060811015610b0257600080fd5b8101908080359060200190929190803590602001909291908035906020019092919050505061196e565b60405180848152602001838152602001828152602001935050505060405180910390f35b348015610b5c57600080fd5b50610b65611e16565b604051808215151515815260200191505060405180910390f35b348015610b8b57600080fd5b50610bd660048036036080811015610ba257600080fd5b8101908080359060200190929190803590602001909291908035906020019092919080359060200190929190505050611e2d565b604051808381526020018281526020019250505060405180910390f35b348015610bff57600080fd5b50610c5e600480360360c0811015610c1657600080fd5b81019080803590602001909291908035906020019092919080359060200190929190803590602001909291908035906020019092919080359060200190929190505050611e67565b60405180848152602001838152602001828152602001935050505060405180910390f35b60008083600060028110610c9257fe5b60200201511480610cd457507fffffffff00000000ffffffffffffffffbce6faada7179e84f3b9cac2fc63255183600060028110610ccc57fe5b602002015110155b80610cf05750600083600160028110610ce957fe5b6020020151145b15610cfe5760009050610f99565b610d2a82600060028110610d0e57fe5b602002015183600160028110610d2057fe5b602002015161115d565b610d375760009050610f99565b6000806000806000610d7a88600160028110610d4f57fe5b60200201517fffffffff00000000ffffffffffffffffbce6faada7179e84f3b9cac2fc632551611ffd565b9050610df47f6b17d1f2e12c4247f8bce6e563a440f277037d812deb33a0f4a13945d898c2967f4fe342e2fe1a7f9b8ee7eb4a7c0f9e162bce33576b315ececbb6406837bf51f57fffffffff00000000ffffffffffffffffbce6faada7179e84f3b9cac2fc63255180610de957fe5b848d60001c096114df565b8094508196505050610e6487600060028110610e0c57fe5b602002015188600160028110610e1e57fe5b60200201517fffffffff00000000ffffffffffffffffbce6faada7179e84f3b9cac2fc63255180610e4b57fe5b848c600060028110610e5957fe5b6020020151096114df565b8093508195505050610e74613017565b610e80868587866114aa565b9050600081600260038110610e9157fe5b60200201511415610eab5760009650505050505050610f99565b6000610ee882600260038110610ebd57fe5b60200201517fffffffff00000001000000000000000000000000ffffffffffffffffffffffff611ffd565b90507fffffffff00000001000000000000000000000000ffffffffffffffffffffffff80610f1257fe5b7fffffffff00000001000000000000000000000000ffffffffffffffffffffffff80610f3a57fe5b82830983600060038110610f4a57fe5b602002015109905089600060028110610f5f57fe5b60200201517fffffffff00000000ffffffffffffffffbce6faada7179e84f3b9cac2fc6325518281610f8d57fe5b06149750505050505050505b9392505050565b6006544211610fae57600080fd5b600460149054906101000a900460ff16610fc757600080fd5b600460159054906101000a900460ff16610fe057600080fd5b600460169054906101000a900460ff1615610ffa57600080fd5b600360009054906101000a900473ffffffffffffffffffffffffffffffffffffffff1673ffffffffffffffffffffffffffffffffffffffff166108fc6002549081150290604051600060405180830381858888f19350505050158015611064573d6000803e3d6000fd5b50600360009054906101000a900473ffffffffffffffffffffffffffffffffffffffff1673ffffffffffffffffffffffffffffffffffffffff166108fc6007549081150290604051600060405180830381858888f193505050501580156110cf573d6000803e3d6000fd5b50565b60008060006110e38585600161196e565b8093508196508297505050506110fa858583611416565b92509250509250929050565b6000806111547f6b17d1f2e12c4247f8bce6e563a440f277037d812deb33a0f4a13945d898c2967f4fe342e2fe1a7f9b8ee7eb4a7c0f9e162bce33576b315ececbb6406837bf51f5856114df565b91509150915091565b6000826000148061118d57507fffffffff00000001000000000000000000000000ffffffffffffffffffffffff83145b806111985750816000145b806111c257507fffffffff00000001000000000000000000000000ffffffffffffffffffffffff82145b156111d05760009050611376565b60007fffffffff00000001000000000000000000000000ffffffffffffffffffffffff806111fa57fe5b838409905060007fffffffff00000001000000000000000000000000ffffffffffffffffffffffff8061122957fe5b857fffffffff00000001000000000000000000000000ffffffffffffffffffffffff8061125257fe5b87880909905060007fffffffff00000001000000000000000000000000fffffffffffffffffffffffc146112f8577fffffffff00000001000000000000000000000000ffffffffffffffffffffffff806112a857fe5b7fffffffff00000001000000000000000000000000ffffffffffffffffffffffff806112d057fe5b7fffffffff00000001000000000000000000000000fffffffffffffffffffffffc8709820890505b60007f5ac635d8aa3a93e7b3ebbd55769886bc651d06b0cc53b0f63bce3c3e27d2604b1461136e577fffffffff00000001000000000000000000000000ffffffffffffffffffffffff8061134857fe5b7f5ac635d8aa3a93e7b3ebbd55769886bc651d06b0cc53b0f63bce3c3e27d2604b820890505b808214925050505b92915050565b60008060008060016000829250819150809050925092509250909192565b6000806000859050600085905060006001905060008090505b868110156113df576113c684848461196e565b80945081955082965050505080806001019150506113b3565b506113eb838383611416565b94509450505050935093915050565b61140882826061603c6116fc565b5050565b6000600754905090565b6000806000611445847fffffffff00000001000000000000000000000000ffffffffffffffffffffffff611ffd565b90507fffffffff00000001000000000000000000000000ffffffffffffffffffffffff8061146f57fe5b81870992507fffffffff00000001000000000000000000000000ffffffffffffffffffffffff8061149c57fe5b818609915050935093915050565b6114b2613017565b6000806114c187878787611e2d565b80925081935050506114d382826115e1565b92505050949350505050565b60008060008314156114fc576114f36116d6565b915091506115d9565b6001831415611510578484915091506115d9565b600283141561152c5761152385856110d2565b915091506115d9565b6000859050600085905060006001905060006001905088955087945060006002888161155457fe5b06141561156357600094508495505b600187901c96505b60008711156115c55761157f84848461196e565b80945081955082965050505060016002888161159757fe5b0614156115b9576115ac848484898986611e67565b8093508197508298505050505b600187901c965061156b565b6115d0868683611416565b95509550505050505b935093915050565b6115e9613017565b7fffffffff00000001000000000000000000000000ffffffffffffffffffffffff8061161157fe5b60016000088160026003811061162357fe5b6020020181815250507fffffffff00000001000000000000000000000000ffffffffffffffffffffffff8061165457fe5b8160026003811061166157fe5b602002015184098160006003811061167557fe5b6020020181815250507fffffffff00000001000000000000000000000000ffffffffffffffffffffffff806116a657fe5b816002600381106116b357fe5b60200201518309816001600381106116c757fe5b60200201818152505092915050565b600080600080819150809050915091509091565b6116f88282606f60496116fc565b5050565b600460149054906101000a900460ff1661171557600080fd5b600460159054906101000a900460ff1661172e57600080fd5b600460169054906101000a900460ff161561174857600080fd5b61175284836120ad565b61175b57600080fd5b6117668484836123e4565b61176f57600080fd5b600460009054906101000a900473ffffffffffffffffffffffffffffffffffffffff1673ffffffffffffffffffffffffffffffffffffffff166108fc6002549081150290604051600060405180830381858888f193505050501580156117d9573d6000803e3d6000fd5b506001600460166101000a81548160ff02191690831515021790555050505050565b600460149054906101000a900460ff161561181557600080fd5b600360009054906101000a900473ffffffffffffffffffffffffffffffffffffffff1673ffffffffffffffffffffffffffffffffffffffff163373ffffffffffffffffffffffffffffffffffffffff161415611887576001600460146101000a81548160ff0219169083151502179055505b34600281905550565b600080831480156118a15750600082145b156118af57600190506118b4565b600090505b92915050565b6000600254905090565b60075434146118d257600080fd5b600460149054906101000a900460ff166118eb57600080fd5b600460159054906101000a900460ff161561190557600080fd5b33600460006101000a81548173ffffffffffffffffffffffffffffffffffffffff021916908373ffffffffffffffffffffffffffffffffffffffff16021790555060055442016006819055506001600460156101000a81548160ff021916908315150217905550565b60008060008060008060006119838a8a611890565b1561199f5761199061137c565b96509650965050505050611e0d565b7fffffffff00000001000000000000000000000000ffffffffffffffffffffffff806119c757fe5b888a0992507fffffffff00000001000000000000000000000000ffffffffffffffffffffffff806119f457fe5b6002840992507fffffffff00000001000000000000000000000000ffffffffffffffffffffffff80611a2257fe5b8a840991507fffffffff00000001000000000000000000000000ffffffffffffffffffffffff80611a4f57fe5b89830991507fffffffff00000001000000000000000000000000ffffffffffffffffffffffff80611a7c57fe5b6002830991507fffffffff00000001000000000000000000000000ffffffffffffffffffffffff80611aaa57fe5b8a8b0999507fffffffff00000001000000000000000000000000ffffffffffffffffffffffff80611ad757fe5b60038b0993507fffffffff00000001000000000000000000000000ffffffffffffffffffffffff80611b0557fe5b88890997507fffffffff00000001000000000000000000000000ffffffffffffffffffffffff80611b3257fe5b7fffffffff00000001000000000000000000000000fffffffffffffffffffffffc890997507fffffffff00000001000000000000000000000000ffffffffffffffffffffffff80611b7f57fe5b88850893507fffffffff00000001000000000000000000000000ffffffffffffffffffffffff80611bac57fe5b84850990507fffffffff00000001000000000000000000000000ffffffffffffffffffffffff80611bd957fe5b8260020999507fffffffff00000001000000000000000000000000ffffffffffffffffffffffff80611c0757fe5b8a7fffffffff00000001000000000000000000000000ffffffffffffffffffffffff03820890507fffffffff00000001000000000000000000000000ffffffffffffffffffffffff80611c5657fe5b817fffffffff00000001000000000000000000000000ffffffffffffffffffffffff03830899507fffffffff00000001000000000000000000000000ffffffffffffffffffffffff80611ca557fe5b8a850999507fffffffff00000001000000000000000000000000ffffffffffffffffffffffff80611cd257fe5b838a0998507fffffffff00000001000000000000000000000000ffffffffffffffffffffffff80611cff57fe5b898a0998507fffffffff00000001000000000000000000000000ffffffffffffffffffffffff80611d2c57fe5b8960020998507fffffffff00000001000000000000000000000000ffffffffffffffffffffffff80611d5a57fe5b897fffffffff00000001000000000000000000000000ffffffffffffffffffffffff038b0895507fffffffff00000001000000000000000000000000ffffffffffffffffffffffff80611da957fe5b81840996507fffffffff00000001000000000000000000000000ffffffffffffffffffffffff80611dd657fe5b83840994507fffffffff00000001000000000000000000000000ffffffffffffffffffffffff80611e0357fe5b8386099450505050505b93509350939050565b6000600460169054906101000a900460ff16905090565b6000806000611e428787600188886001611e67565b809350819850829950505050611e59878783611416565b925092505094509492505050565b6000806000806000806000611e7c8d8d611890565b15611e935789898996509650965050505050611ff1565b611e9d8a8a611890565b15611eb4578c8c8c96509650965050505050611ff1565b7fffffffff00000001000000000000000000000000ffffffffffffffffffffffff80611edc57fe5b888d0993507fffffffff00000001000000000000000000000000ffffffffffffffffffffffff80611f0957fe5b8b8a0992507fffffffff00000001000000000000000000000000ffffffffffffffffffffffff80611f3657fe5b888e0991507fffffffff00000001000000000000000000000000ffffffffffffffffffffffff80611f6357fe5b8b8b09905080821415611fa95782841415611f9257611f838d8d8d61196e565b96509650965050505050611ff1565b611f9a61137c565b96509650965050505050611ff1565b611fe07fffffffff00000001000000000000000000000000ffffffffffffffffffffffff80611fd457fe5b898d0983838688612587565b809750819850829950505050505050505b96509650969350505050565b60008083148061200c57508183145b806120175750600082145b1561202557600090506120a7565b8183111561203a5781838161203657fe5b0692505b600080600190506000849050600086905060005b600082146120835781838161205f57fe5b0490508384820286038384840286038095508196508297508398505050505061204e565b600085121561209e57846000038703955050505050506120a7565b84955050505050505b92915050565b6000808290505b83518167ffffffffffffffff1610156123d85760006120dd858367ffffffffffffffff1661291d565b905060108201915060008060006120f48589612a27565b9250925092508261210157fe5b6001820194506000806000612116888c612a27565b9250925092508261212357fe5b60018201975073__DateTime______________________________638c8d98a073__DateTime______________________________6392d66313846040518263ffffffff1660e01b8152600401808267ffffffffffffffff16815260200191505060206040518083038186803b15801561219c57600080fd5b505af41580156121b0573d6000803e3d6000fd5b505050506040513d60208110156121c657600080fd5b810190808051906020019092919050505073__DateTime______________________________63a324ad24856040518263ffffffff1660e01b8152600401808267ffffffffffffffff16815260200191505060206040518083038186803b15801561223057600080fd5b505af4158015612244573d6000803e3d6000fd5b505050506040513d602081101561225a57600080fd5b810190808051906020019092919050505073__DateTime______________________________6365c72840866040518263ffffffff1660e01b8152600401808267ffffffffffffffff16815260200191505060206040518083038186803b1580156122c457600080fd5b505af41580156122d8573d6000803e3d6000fd5b505050506040513d60208110156122ee57600080fd5b81019080805190602001909291905050506040518463ffffffff1660e01b8152600401808461ffff1661ffff1681526020018360ff1660ff1681526020018260ff1660ff168152602001935050505060206040518083038186803b15801561235557600080fd5b505af4158015612369573d6000803e3d6000fd5b505050506040513d602081101561237f57600080fd5b81019080805190602001909291905050509050600a880197506123b7878267ffffffffffffffff168667ffffffffffffffff16612bdb565b6123cc576000985050505050505050506123de565b505050505050506120b4565b60019150505b92915050565b600060606123f484846047612d27565b9050600060208260038151811061240757fe5b602001015160f81c60f81b60f81c03905060006020836025840160ff168151811061242e57fe5b602001015160f81c60f81b60f81c039050612447613039565b612457846004850160ff16612f0d565b8160006002811061246457fe5b60200201818152505061247f8483602686010160ff16612f0d565b8160016002811061248c57fe5b60200201818152505061257a6002896040518082805190602001908083835b602083106124ce57805182526020820191506020810190506020830392506124ab565b6001836020036101000a038019825116818451168082178552505050505050905001915050602060405180830381855afa158015612510573d6000803e3d6000fd5b5050506040513d602081101561252557600080fd5b8101908080519060200190929190505050826000600280602002604051908101604052809291908260028015612570576020028201915b81548152602001906001019080831161255c575b5050505050610c82565b9450505050509392505050565b6000806000806000806000807fffffffff00000001000000000000000000000000ffffffffffffffffffffffff806125bb57fe5b8a7fffffffff00000001000000000000000000000000ffffffffffffffffffffffff038a0890507fffffffff00000001000000000000000000000000ffffffffffffffffffffffff8061260a57fe5b8b7fffffffff00000001000000000000000000000000ffffffffffffffffffffffff038d0894507fffffffff00000001000000000000000000000000ffffffffffffffffffffffff8061265957fe5b85860993507fffffffff00000001000000000000000000000000ffffffffffffffffffffffff8061268657fe5b81820991507fffffffff00000001000000000000000000000000ffffffffffffffffffffffff806126b357fe5b8d830991507fffffffff00000001000000000000000000000000ffffffffffffffffffffffff806126e057fe5b8c8c089a507fffffffff00000001000000000000000000000000ffffffffffffffffffffffff8061270d57fe5b848c099a507fffffffff00000001000000000000000000000000ffffffffffffffffffffffff8061273a57fe5b8b7fffffffff00000001000000000000000000000000ffffffffffffffffffffffff03830891507fffffffff00000001000000000000000000000000ffffffffffffffffffffffff8061278957fe5b82860997507fffffffff00000001000000000000000000000000ffffffffffffffffffffffff806127b657fe5b85850992507fffffffff00000001000000000000000000000000ffffffffffffffffffffffff806127e357fe5b848d099b507fffffffff00000001000000000000000000000000ffffffffffffffffffffffff8061281057fe5b827fffffffff00000001000000000000000000000000ffffffffffffffffffffffff038d089b507fffffffff00000001000000000000000000000000ffffffffffffffffffffffff8061285f57fe5b8c820990507fffffffff00000001000000000000000000000000ffffffffffffffffffffffff8061288c57fe5b838a0998507fffffffff00000001000000000000000000000000ffffffffffffffffffffffff806128b957fe5b897fffffffff00000001000000000000000000000000ffffffffffffffffffffffff03820896507fffffffff00000001000000000000000000000000ffffffffffffffffffffffff8061290857fe5b8d840995505050505050955095509592505050565b600081601083011015612998576040517f08c379a00000000000000000000000000000000000000000000000000000000081526004018080602001828103825260128152602001807f746f427974657331365f6f766572666c6f77000000000000000000000000000081525060200191505060405180910390fd5b6010820183511015612a12576040517f08c379a00000000000000000000000000000000000000000000000000000000081526004018080602001828103825260158152602001807f746f427974657331365f6f75744f66426f756e6473000000000000000000000081525060200191505060405180910390fd5b60008260108501015190508091505092915050565b60008060008060008090505b600a67ffffffffffffffff168167ffffffffffffffff161015612b2b57855187820167ffffffffffffffff1610612a795760008760008090509450945094505050612bd4565b60008682890167ffffffffffffffff1681518110612a9357fe5b602001015160f81c60f81b60f81c90506000607f821690506007830267ffffffffffffffff168160ff1667ffffffffffffffff16901b8417935060006080831660ff161415612b1c5760008367ffffffffffffffff16118015612af9575060008160ff16145b15612b1557600089600080905096509650965050505050612bd4565b5050612b2b565b50508080600101915050612a33565b600a67ffffffffffffffff168167ffffffffffffffff1610612b5c5760008760008090509450945094505050612bd4565b6001600a0367ffffffffffffffff168167ffffffffffffffff161415612bc35760018682890167ffffffffffffffff1681518110612b9657fe5b602001015160f81c60f81b60f81c60ff161115612bc25760008760008090509450945094505050612bd4565b5b600180828901018394509450945050505b9250925092565b600080600090505b600980549050811015612d1a5760098181548110612bfd57fe5b90600052602060002090600291828204019190066010029054906101000a900460801b60405160200180826fffffffffffffffffffffffffffffffff19166fffffffffffffffffffffffffffffffff19168152601001915050604051602081830303815290604052805190602001208560405160200180826fffffffffffffffffffffffffffffffff19166fffffffffffffffffffffffffffffffff1916815260100191505060405160208183030381529060405280519060200120148015612cdc5750600a8181548110612cce57fe5b906000526020600020015484145b8015612cfe5750600b8181548110612cf057fe5b906000526020600020015483145b15612d0d576001915050612d20565b8080600101915050612be3565b50600090505b9392505050565b606081601f83011015612da2576040517f08c379a000000000000000000000000000000000000000000000000000000000815260040180806020018281038252600e8152602001807f736c6963655f6f766572666c6f7700000000000000000000000000000000000081525060200191505060405180910390fd5b828284011015612e1a576040517f08c379a000000000000000000000000000000000000000000000000000000000815260040180806020018281038252600e8152602001807f736c6963655f6f766572666c6f7700000000000000000000000000000000000081525060200191505060405180910390fd5b81830184511015612e93576040517f08c379a00000000000000000000000000000000000000000000000000000000081526004018080602001828103825260118152602001807f736c6963655f6f75744f66426f756e647300000000000000000000000000000081525060200191505060405180910390fd5b6060821560008114612eb057604051915060208201604052612f01565b6040519150601f8416801560200281840101858101878315602002848b0101015b81831015612eee5780518352602083019250602081019050612ed1565b50868552601f19601f8301166040525050505b50809150509392505050565b600081602083011015612f88576040517f08c379a00000000000000000000000000000000000000000000000000000000081526004018080602001828103825260128152602001807f746f55696e743235365f6f766572666c6f77000000000000000000000000000081525060200191505060405180910390fd5b6020820183511015613002576040517f08c379a00000000000000000000000000000000000000000000000000000000081526004018080602001828103825260158152602001807f746f55696e743235365f6f75744f66426f756e6473000000000000000000000081525060200191505060405180910390fd5b60008260208501015190508091505092915050565b6040518060600160405280600390602082028038833980820191505090505090565b604051806040016040528060029060208202803883398082019150509050509056fea264697066735822122075848f4434e020fcb03cad8399020d9d0e1f65356ebce347c4b8d7b5fbf3517a64736f6c63430006000033",
  "source": "pragma solidity ^0.6.0;\n import \"./GaenKey.sol\";\nimport \"@lazyledger/protobuf3-solidity-lib/contracts/ProtobufLib.sol\";\n import \"./libs/Base64.sol\";\n import \"./libs/DateTime.sol\";\n import \"./libs/EllipticCurve.sol\";\n import \"solidity-bytes-utils/contracts/BytesLib.sol\";\n \n \ncontract TakeTEK is EllipticCurve  {\n    \n    //TEK Mapping\n /*struct GaenKey {\n    \tstring keyData; //base64 key (optional)\n    \tuint rollingStartNumber;\n    \tuint rollingPeriod;\n    \tuint transmissionRiskLevel;\n    }*/\n    //mapping (uint => GaenKey) keys;\n   //GaenKey[] keys;\n    //GaenKey[] list;\n\n    uint[2] tekPK;\n    uint256 prize;\n    address payable buyer; \n    address payable seller;\n    bool buyerDeposited;\n    bool promised;\n    bool sigVerified = false;\n    uint k;\n    uint256 timer;\n    uint256 collateral;\n    bytes buffer;\n    uint constant IMMUNI_EXP_START = 111;\n    uint constant SWISSCOVID_EXP_START = 97;\n    uint constant IMMUNI_SIG_START = 73;\n    uint constant SWISSCOVID_SIG_START = 60;\n\n    bytes16[] keys;\n    uint[] rollingStartNumbers;\n    uint[] transmissionRiskLevels;\n    \n    constructor(bytes memory _pkX, bytes memory _pkY, uint _k, uint256 _collateral , bytes16[] memory _keys, uint[] memory _rollingStartNumbers, uint[] memory _transmissionRiskLevels\n    ) public {\n       tekPK[0] = BytesLib.toUint256(_pkX,0);\n       tekPK[1] = BytesLib.toUint256(_pkY,0);\n       keys = _keys;\n        rollingStartNumbers = _rollingStartNumbers;\n        transmissionRiskLevels = _transmissionRiskLevels;\n        buyer = msg.sender;\n        buyerDeposited = false;\n        promised = false;\n        k = _k;\n        collateral = _collateral;\n    }\n    function getPrize() public view  returns (uint) {\n        return prize;\n    }\n   function getCollateral() public view  returns (uint) {\n        return collateral;\n    }\n    function isSigVerified() public view  returns (bool) {\n        return sigVerified;\n    }\n    function depositBuyer() public payable {\n        require(!buyerDeposited);\n        if (msg.sender == buyer) buyerDeposited = true;\n        prize = msg.value;\n    }\n    //The infected seller do a promise of sending the teks online\n    function promiseUpload() public payable {\n        require(msg.value == collateral);\n        require(buyerDeposited);\n        require(!promised);\n        seller = msg.sender;\n        timer = block.timestamp+k;\n        promised = true;\n    }\n    \n    //function triggered if the infected didn't send his TEKs or sent incorrect ones.\n    function checkTimeout() public {\n        require(block.timestamp > timer);\n        require(buyerDeposited);\n        require(promised);\n        require(!sigVerified);\n        buyer.transfer(prize);\n        buyer.transfer(collateral);\n    }\n    //auxiliary functions\n    function checkKey(bytes16 _keyData, uint _rollingStartNumber, uint _transmissionRiskLevel) internal view returns (bool) {\n    \t\tfor (uint j = 0; j < keys.length; j++) {\n \t\t       if (keccak256(abi.encodePacked(_keyData)) == keccak256(abi.encodePacked(keys[j])) &&\n \t\t     _rollingStartNumber == rollingStartNumbers[j] &&\n \t\t       _transmissionRiskLevel == transmissionRiskLevels[j])\n \t\t        return true;\n    \t\t}\n \treturn false;\n    }\n    function checkExportKeys(bytes memory exportFile, uint expStart)  internal returns (bool) {\n       uint64 pos = uint64(expStart);\n            while (pos < exportFile.length) {\n            bytes16 _keyData = toBytes16(exportFile,pos);\n            pos+=16;\n            (bool succ, uint64 p, uint64 _transmissionRiskLevel) = ProtobufLib.decode_varint(pos,exportFile); \n             assert(succ);\n            pos =p+1;\n            (bool succ2, uint64 p2, uint64 _rollingStartNumber) = ProtobufLib.decode_varint(pos,exportFile); \n            assert(succ2);\n            pos = p2+1;\n\n            //convert to midnight of the same day, based on how immuni/swisscovid work\n           _rollingStartNumber = uint64(DateTime.toTimestamp(DateTime.getYear(_rollingStartNumber),\n                DateTime.getMonth(_rollingStartNumber),DateTime.getDay(_rollingStartNumber)));\n\n            /* (bool succ3, uint64 p3, uint64 _rollingPeriod) = ProtobufLib.decode_varint(pos,exportFile); \n           assert(succ3);\n            //Value not important in Immuni\n            pos = p3+7;*/\n            pos += 10;\n            if (!checkKey(_keyData,_rollingStartNumber,_transmissionRiskLevel)) return false;\n        }\n        return true;\n    } \n\n    //Check primev256 signature\n    function checkSignature(bytes memory exportFile, \n    bytes memory signatureFile, uint sigStart) internal  returns (bool)\n    {\n        bytes memory signature = BytesLib.slice(signatureFile,sigStart,71);\n       uint8 offset = uint8(signature[3])-32;\n       uint8 offset2 = uint8(signature[offset+37])-32;\n        uint[2] memory sig;\n        sig[0] = BytesLib.toUint256(signature,offset+4);\n        sig[1] = BytesLib.toUint256(signature,offset+38+offset2);\n      return EllipticCurve.validateSignature(sha256(exportFile),sig,tekPK);\n    }\n\n    function sendSignedTEKListImmuni(bytes memory exportFile,  bytes memory signatureFile) public payable {\n        sendSignedTEKList(exportFile,signatureFile,IMMUNI_EXP_START,IMMUNI_SIG_START);\n\n    }\n      function sendSignedTEKListSC(bytes memory exportFile,  bytes memory signatureFile) public payable {\n        sendSignedTEKList(exportFile,signatureFile,SWISSCOVID_EXP_START,SWISSCOVID_SIG_START);\n        \n    }\n\n\n    function sendSignedTEKList(bytes memory exportFile,  bytes memory signatureFile, uint expStart, uint sigStart) public payable {\n        require (buyerDeposited);\n        require (promised);\n        require (!sigVerified);\n        require (checkExportKeys(exportFile,expStart));\n        require (checkSignature(exportFile,signatureFile,sigStart));\n        seller.transfer(prize);\n        sigVerified = true;\n    }\n\n\n    function toBytes16(bytes memory _bytes, uint256 _start) internal pure returns (bytes16) {\n        require(_start + 16 >= _start, \"toBytes16_overflow\");\n        require(_bytes.length >= _start + 16, \"toBytes16_outOfBounds\");\n        bytes16 tempBytes16;\n\n        assembly {\n            tempBytes16 := mload(add(add(_bytes, 0x10), _start))\n        }\n\n        return tempBytes16;\n    }\n    }",
  "sourcePath": "/Users/danielefriolo/take-tek/contracts/TakeTEK.sol",
  "compiler": {
    "name": "solc",
    "version": "0.6.0+commit.26b70077.Emscripten.clang"
  },
  "schemaVersion": "3.0.20",
  "updatedAt": "2020-11-25T23:32:29.806Z",
  "networkType": "ethereum",
  "devdoc": {
    "methods": {
      "add(uint256,uint256,uint256,uint256)": {
        "details": "Add two elliptic curve points in affine coordinates."
      },
      "addAndReturnProjectivePoint(uint256,uint256,uint256,uint256)": {
        "details": "Add two points in affine coordinates and return projective point."
      },
      "addProj(uint256,uint256,uint256,uint256,uint256,uint256)": {
        "details": "Add two elliptic curve points in projective coordinates. See https://www.nayuki.io/page/elliptic-curve-point-addition-in-projective-coordinates"
      },
      "isOnCurve(uint256,uint256)": {
        "details": "Check if a point in affine coordinates is on the curve."
      },
      "isZeroCurve(uint256,uint256)": {
        "details": "Check if the curve is the zero curve."
      },
      "multipleGeneratorByScalar(uint256)": {
        "details": "Multiply the curve's generator point by a scalar."
      },
      "multiplyPowerBase2(uint256,uint256,uint256)": {
        "details": "Multiply an elliptic curve point by a 2 power base (i.e., (2^exp)*P))."
      },
      "multiplyScalar(uint256,uint256,uint256)": {
        "details": "Multiply an elliptic curve point by a scalar."
      },
      "toAffinePoint(uint256,uint256,uint256)": {
        "details": "Transform from projective to affine coordinates."
      },
      "toProjectivePoint(uint256,uint256)": {
        "details": "Transform affine coordinates into projective coordinates."
      },
      "twice(uint256,uint256)": {
        "details": "Double an elliptic curve point in affine coordinates."
      },
      "twiceProj(uint256,uint256,uint256)": {
        "details": "Double an elliptic curve point in projective coordinates. See https://www.nayuki.io/page/elliptic-curve-point-addition-in-projective-coordinates"
      },
      "validateSignature(bytes32,uint256[2],uint256[2])": {
        "details": "Validate combination of message, signature, and public key."
      },
      "zeroAffine()": {
        "details": "Return the zero curve in affine coordinates."
      },
      "zeroProj()": {
        "details": "Return the zero curve in projective coordinates."
      }
    }
  },
  "userdoc": {
    "methods": {}
  }
}